:100000000C9434000C9446000C9446000C9446006A
:100010000C9446000C9446000C9446000C94460048
:100020000C9446000C9446000C9446000C94460038
:100030000C9446000C9446000C9474000C944600FA
:100040000C9446000C9446000C9446000C94460018
:100050000C9446000C9446000C9446000C94460008
:100060000C9446000C94460011241FBECFEFD8E03C
:10007000DEBFCDBF21E0A0E0B1E001C01D92A732FC
:10008000B207E1F70E9436010C94A2020C94000022
:1000900080910D018095282F217030E0C901880FD3
:1000A000991F220F331F220F331F220F331F820F7E
:1000B000931F825F9E4FFC018AE0DF011D928A95AB
:1000C000E9F7089580FF08C05E9881FF08C05D9839
:1000D00082FD08C05F9A08955E9A81FDF8CF5D9A0F
:1000E00082FFF8CF5F9808951F920F920FB60F927C
:1000F00011242F933F934F935F936F937F938F932D
:100100009F93AF93BF93CF93EF93FF9380E00E94B1
:100110006200C09102014598289829982A982B9846
:1001200040984198429843984498C43009F49CC040
:1001300008F477C0C73009F48FC008F07CC0C53020
:1001400009F488C0C63009F4419AEC2FF0E0ED5F65
:10015000FE4F80810E946200CF5FC0930201CA30CF
:1001600020F180910001909101010196909301018D
:10017000809300011092020120910D01822F817065
:1001800090E0FC01EE0FFF1F880F991F880F991F49
:10019000880F991FE80FF91FE25FFE4F8AE0A3E086
:1001A000B1E001900D928A95E1F7809122018823B8
:1001B00009F44AC0282F269590912301921708F040
:1001C00046C02E9A2F989F5F90932301981710F0A6
:1001D000109223012091240130E04FB7F8948091D0
:1001E0000001909101014FBF4091250150912601DE
:1001F000841B950B8217930710F010922201FF9138
:10020000EF91CF91BF91AF919F918F917F916F911E
:100210005F914F913F912F910F900FBE0F901F90C4
:100220001895C130F9F070F0C230C1F0C33009F058
:100230008CCF2A9A8ACFC83099F0C93009F085CF7F
:10024000449A83CF459A81CF2E982F98D8CF2E9855
:100250002F9AB9CF409A79CF429A77CF299A75CF02
:10026000439A73CF289A71CF2B9A6FCFCF93DF9396
:10027000CDB7DEB728970FB6F894DEBF0FBECDBF5F
:10028000E1E0F0E0E491E0936600569A559A579ABF
:100290003D9A209A219A229A239A389A399A3A9A20
:1002A0003B9A3C9A269A279A2E982F9810922301CF
:1002B0001092220110922401109226011092250121
:1002C00082E084BD85BD84E687BD80916E0082603A
:1002D00080936E0048E050E060E070E4CE0101964B
:1002E0000E949902789411E08D819B8110922301E4
:1002F00090932201809324012FB7F89480910001FC
:10030000909101012FBF90932601809325010E94B7
:1003100048009FB7F89480910D01812780930D01CB
:100320009FBF2E8130E0898181FD03C08D81280F20
:10033000311D2115310599F08FB7F89440910001D6
:10034000509101018FBF6FB7F89480910001909197
:1003500001016FBF841B950B82179307A0F38A815D
:10036000882309F457C070E08FB7F89440910001DA
:10037000509101018FBF8A8190E0871B91090197FD
:100380009C01220F331F220F331F280F391F60914A
:100390000D016127862F817090E0DC01AA0FBB1F41
:1003A000880F991F880F991F880F991FA80FB91FD1
:1003B000A15FBE4F80E090E0FC01E20FF31FE85F19
:1003C000FF4B6491FD013197062F02950F7000835A
:1003D0006F706C93019612968530910569F79FB7FF
:1003E000F89480910D01812780930D019FBF2FB755
:1003F000F89480910001909101012FBF841B950B0F
:100400002F8138858217930790F37F5F8A81781751
:1004100008F4AACF8D819C81109223019093220130
:10042000809324012FB7F8948091000190910101ED
:100430002FBF90932601809325010E9448009FB70B
:10044000F89480910D01812780930D019FBF2E812B
:1004500030E0898181FD03C08D81280F311D211578
:10046000310599F08FB7F894409100015091010146
:100470008FBF6FB7F89480910001909101016FBF19
:10048000841B950B82179307A0F38A81882309F4B4
:100490002BCF00E08FB7F8944091000150910101FB
:1004A0008FBF85E0089F9001112460910D016127A5
:1004B000862F817090E0DC01AA0FBB1F880F991F67
:1004C000880F991F880F991FA80FB91FA15FBE4FF2
:1004D00080E090E0FC01E20FF31FE85FFF4B6491C6
:1004E000FD013197762F72957F7070836F706C93DA
:1004F000019612968530910569F79FB7F89480911F
:100500000D01812780930D019FBF2FB7F894809133
:100510000001909101012FBF841B950B2F8138851D
:100520008217930790F30F5F8A81081708F0DCCEDB
:10053000B1CFFB01DC0102C005900D92415050404B
:08054000D8F70895F894FFCFED
:08400000001402040A0019007B
:00000001FF
